{
  "_format": "hh-sol-artifact-1",
  "contractName": "DEMLE",
  "sourceName": "contracts/DEMLE.sol",
  "abi": [
    {
      "inputs": [],
      "stateMutability": "nonpayable",
      "type": "constructor"
    },
    {
      "inputs": [
        {
          "internalType": "address",
          "name": "spender",
          "type": "address"
        },
        {
          "internalType": "uint256",
          "name": "allowance",
          "type": "uint256"
        },
        {
          "internalType": "uint256",
          "name": "needed",
          "type": "uint256"
        }
      ],
      "name": "ERC20InsufficientAllowance",
      "type": "error"
    },
    {
      "inputs": [
        {
          "internalType": "address",
          "name": "sender",
          "type": "address"
        },
        {
          "internalType": "uint256",
          "name": "balance",
          "type": "uint256"
        },
        {
          "internalType": "uint256",
          "name": "needed",
          "type": "uint256"
        }
      ],
      "name": "ERC20InsufficientBalance",
      "type": "error"
    },
    {
      "inputs": [
        {
          "internalType": "address",
          "name": "approver",
          "type": "address"
        }
      ],
      "name": "ERC20InvalidApprover",
      "type": "error"
    },
    {
      "inputs": [
        {
          "internalType": "address",
          "name": "receiver",
          "type": "address"
        }
      ],
      "name": "ERC20InvalidReceiver",
      "type": "error"
    },
    {
      "inputs": [
        {
          "internalType": "address",
          "name": "sender",
          "type": "address"
        }
      ],
      "name": "ERC20InvalidSender",
      "type": "error"
    },
    {
      "inputs": [
        {
          "internalType": "address",
          "name": "spender",
          "type": "address"
        }
      ],
      "name": "ERC20InvalidSpender",
      "type": "error"
    },
    {
      "inputs": [
        {
          "internalType": "address",
          "name": "owner",
          "type": "address"
        }
      ],
      "name": "OwnableInvalidOwner",
      "type": "error"
    },
    {
      "inputs": [
        {
          "internalType": "address",
          "name": "account",
          "type": "address"
        }
      ],
      "name": "OwnableUnauthorizedAccount",
      "type": "error"
    },
    {
      "anonymous": false,
      "inputs": [
        {
          "indexed": true,
          "internalType": "address",
          "name": "owner",
          "type": "address"
        },
        {
          "indexed": true,
          "internalType": "address",
          "name": "spender",
          "type": "address"
        },
        {
          "indexed": false,
          "internalType": "uint256",
          "name": "value",
          "type": "uint256"
        }
      ],
      "name": "Approval",
      "type": "event"
    },
    {
      "anonymous": false,
      "inputs": [
        {
          "indexed": true,
          "internalType": "address",
          "name": "miner",
          "type": "address"
        },
        {
          "indexed": false,
          "internalType": "uint256",
          "name": "amount",
          "type": "uint256"
        },
        {
          "indexed": false,
          "internalType": "bytes32",
          "name": "nonce",
          "type": "bytes32"
        }
      ],
      "name": "MiningReward",
      "type": "event"
    },
    {
      "anonymous": false,
      "inputs": [
        {
          "indexed": true,
          "internalType": "address",
          "name": "previousOwner",
          "type": "address"
        },
        {
          "indexed": true,
          "internalType": "address",
          "name": "newOwner",
          "type": "address"
        }
      ],
      "name": "OwnershipTransferred",
      "type": "event"
    },
    {
      "anonymous": false,
      "inputs": [
        {
          "indexed": true,
          "internalType": "address",
          "name": "from",
          "type": "address"
        },
        {
          "indexed": true,
          "internalType": "address",
          "name": "to",
          "type": "address"
        },
        {
          "indexed": false,
          "internalType": "uint256",
          "name": "value",
          "type": "uint256"
        }
      ],
      "name": "Transfer",
      "type": "event"
    },
    {
      "inputs": [],
      "name": "MAX_SUPPLY",
      "outputs": [
        {
          "internalType": "uint256",
          "name": "",
          "type": "uint256"
        }
      ],
      "stateMutability": "view",
      "type": "function"
    },
    {
      "inputs": [],
      "name": "MINING_REWARD",
      "outputs": [
        {
          "internalType": "uint256",
          "name": "",
          "type": "uint256"
        }
      ],
      "stateMutability": "view",
      "type": "function"
    },
    {
      "inputs": [
        {
          "internalType": "address",
          "name": "owner",
          "type": "address"
        },
        {
          "internalType": "address",
          "name": "spender",
          "type": "address"
        }
      ],
      "name": "allowance",
      "outputs": [
        {
          "internalType": "uint256",
          "name": "",
          "type": "uint256"
        }
      ],
      "stateMutability": "view",
      "type": "function"
    },
    {
      "inputs": [
        {
          "internalType": "address",
          "name": "spender",
          "type": "address"
        },
        {
          "internalType": "uint256",
          "name": "value",
          "type": "uint256"
        }
      ],
      "name": "approve",
      "outputs": [
        {
          "internalType": "bool",
          "name": "",
          "type": "bool"
        }
      ],
      "stateMutability": "nonpayable",
      "type": "function"
    },
    {
      "inputs": [
        {
          "internalType": "address",
          "name": "account",
          "type": "address"
        }
      ],
      "name": "balanceOf",
      "outputs": [
        {
          "internalType": "uint256",
          "name": "",
          "type": "uint256"
        }
      ],
      "stateMutability": "view",
      "type": "function"
    },
    {
      "inputs": [],
      "name": "decimals",
      "outputs": [
        {
          "internalType": "uint8",
          "name": "",
          "type": "uint8"
        }
      ],
      "stateMutability": "view",
      "type": "function"
    },
    {
      "inputs": [],
      "name": "getMiningDifficulty",
      "outputs": [
        {
          "internalType": "uint256",
          "name": "",
          "type": "uint256"
        }
      ],
      "stateMutability": "view",
      "type": "function"
    },
    {
      "inputs": [
        {
          "internalType": "address",
          "name": "",
          "type": "address"
        }
      ],
      "name": "lastMiningTime",
      "outputs": [
        {
          "internalType": "uint256",
          "name": "",
          "type": "uint256"
        }
      ],
      "stateMutability": "view",
      "type": "function"
    },
    {
      "inputs": [],
      "name": "name",
      "outputs": [
        {
          "internalType": "string",
          "name": "",
          "type": "string"
        }
      ],
      "stateMutability": "view",
      "type": "function"
    },
    {
      "inputs": [],
      "name": "owner",
      "outputs": [
        {
          "internalType": "address",
          "name": "",
          "type": "address"
        }
      ],
      "stateMutability": "view",
      "type": "function"
    },
    {
      "inputs": [],
      "name": "renounceOwnership",
      "outputs": [],
      "stateMutability": "nonpayable",
      "type": "function"
    },
    {
      "inputs": [
        {
          "internalType": "bytes32",
          "name": "nonce",
          "type": "bytes32"
        },
        {
          "internalType": "bytes",
          "name": "mlProof",
          "type": "bytes"
        }
      ],
      "name": "submitMiningProof",
      "outputs": [],
      "stateMutability": "nonpayable",
      "type": "function"
    },
    {
      "inputs": [],
      "name": "symbol",
      "outputs": [
        {
          "internalType": "string",
          "name": "",
          "type": "string"
        }
      ],
      "stateMutability": "view",
      "type": "function"
    },
    {
      "inputs": [],
      "name": "totalSupply",
      "outputs": [
        {
          "internalType": "uint256",
          "name": "",
          "type": "uint256"
        }
      ],
      "stateMutability": "view",
      "type": "function"
    },
    {
      "inputs": [
        {
          "internalType": "address",
          "name": "to",
          "type": "address"
        },
        {
          "internalType": "uint256",
          "name": "value",
          "type": "uint256"
        }
      ],
      "name": "transfer",
      "outputs": [
        {
          "internalType": "bool",
          "name": "",
          "type": "bool"
        }
      ],
      "stateMutability": "nonpayable",
      "type": "function"
    },
    {
      "inputs": [
        {
          "internalType": "address",
          "name": "from",
          "type": "address"
        },
        {
          "internalType": "address",
          "name": "to",
          "type": "address"
        },
        {
          "internalType": "uint256",
          "name": "value",
          "type": "uint256"
        }
      ],
      "name": "transferFrom",
      "outputs": [
        {
          "internalType": "bool",
          "name": "",
          "type": "bool"
        }
      ],
      "stateMutability": "nonpayable",
      "type": "function"
    },
    {
      "inputs": [
        {
          "internalType": "address",
          "name": "newOwner",
          "type": "address"
        }
      ],
      "name": "transferOwnership",
      "outputs": [],
      "stateMutability": "nonpayable",
      "type": "function"
    },
    {
      "inputs": [
        {
          "internalType": "bytes32",
          "name": "",
          "type": "bytes32"
        }
      ],
      "name": "usedNonces",
      "outputs": [
        {
          "internalType": "bool",
          "name": "",
          "type": "bool"
        }
      ],
      "stateMutability": "view",
      "type": "function"
    }
  ],
  "bytecode": "0x60806040523480156200001157600080fd5b5060408051808201825260058082526444454d4c4560d81b6020808401829052845180860190955291845290830152339160036200005083826200019a565b5060046200005f82826200019a565b5050506001600160a01b0381166200009157604051631e4fbdf760e01b81526000600482015260240160405180910390fd5b6200009c81620000a3565b5062000266565b600580546001600160a01b038381166001600160a01b0319831681179093556040519116919082907f8be0079c531659141344cd1fd0a4f28419497f9722a3daafe3b4186f6b6457e090600090a35050565b634e487b7160e01b600052604160045260246000fd5b600181811c908216806200012057607f821691505b6020821081036200014157634e487b7160e01b600052602260045260246000fd5b50919050565b601f8211156200019557600081815260208120601f850160051c81016020861015620001705750805b601f850160051c820191505b8181101562000191578281556001016200017c565b5050505b505050565b81516001600160401b03811115620001b657620001b6620000f5565b620001ce81620001c784546200010b565b8462000147565b602080601f831160018114620002065760008415620001ed5750858301515b600019600386901b1c1916600185901b17855562000191565b600085815260208120601f198616915b82811015620002375788860151825594840194600190910190840162000216565b5085821015620002565787850151600019600388901b60f8161c191681555b5050505050600190811b01905550565b610c7c80620002766000396000f3fe608060405234801561001057600080fd5b50600436106101165760003560e01c8063784ea2b7116100a2578063a8469ce911610071578063a8469ce914610237578063a9059cbb14610247578063dd62ed3e1461025a578063f2fde38b14610293578063feb61724146102a657600080fd5b8063784ea2b7146101e1578063877bc359146101f45780638da5cb5b1461021457806395d89b411461022f57600080fd5b806323b872dd116100e957806323b872dd1461017a578063313ce5671461018d57806332cb6b0c1461019c57806370a08231146101ae578063715018a6146101d757600080fd5b806306fdde031461011b578063095ea7b31461013957806317da485f1461015c57806318160ddd14610172575b600080fd5b6101236102c9565b6040516101309190610a21565b60405180910390f35b61014c610147366004610a8b565b61035b565b6040519015158152602001610130565b610164610375565b604051908152602001610130565b600254610164565b61014c610188366004610ab5565b6103db565b60405160128152602001610130565b6101646a115eec47f6cf7e3500000081565b6101646101bc366004610af1565b6001600160a01b031660009081526020819052604090205490565b6101df6103ff565b005b6101df6101ef366004610b13565b610413565b610164610202366004610af1565b60066020526000908152604090205481565b6005546040516001600160a01b039091168152602001610130565b6101236105e9565b61016468056bc75e2d6310000081565b61014c610255366004610a8b565b6105f8565b610164610268366004610b8f565b6001600160a01b03918216600090815260016020908152604080832093909416825291909152205490565b6101df6102a1366004610af1565b610606565b61014c6102b4366004610bc2565b60076020526000908152604090205460ff1681565b6060600380546102d890610bdb565b80601f016020809104026020016040519081016040528092919081815260200182805461030490610bdb565b80156103515780601f1061032657610100808354040283529160200191610351565b820191906000526020600020905b81548152906001019060200180831161033457829003601f168201915b5050505050905090565b600033610369818585610644565b60019150505b92915050565b60008061038160025490565b905069d3c21bcecceda100000081101561039d57600191505090565b6a0422ca8b0a00a4250000008110156103b857600291505090565b6a084595161401484a0000008110156103d357600391505090565b600491505090565b6000336103e9858285610656565b6103f48585856106d5565b506001949350505050565b610407610734565b6104116000610761565b565b60008381526007602052604090205460ff161561046c5760405162461bcd60e51b8152602060048201526012602482015271139bdb98d948185b1c9958591e481d5cd95960721b60448201526064015b60405180910390fd5b806104ac5760405162461bcd60e51b815260206004820152601060248201526f24b73b30b634b21026a610383937b7b360811b6044820152606401610463565b6a115eec47f6cf7e3500000068056bc75e2d631000006104cb60025490565b6104d59190610c15565b11156105185760405162461bcd60e51b815260206004820152601260248201527113585e081cdd5c1c1b1e481c995858da195960721b6044820152606401610463565b6105238383836107b3565b6105625760405162461bcd60e51b815260206004820152601060248201526f24b73b30b634b21026a610383937b7b360811b6044820152606401610463565b6000838152600760209081526040808320805460ff191660011790553380845260069092529091204290556105a09068056bc75e2d631000006107e8565b6040805168056bc75e2d6310000081526020810185905233917f77fd6e2d5d28daf423bd6941d38170e326dc42c97e9e0460938c5bed3cc4cce6910160405180910390a2505050565b6060600480546102d890610bdb565b6000336103698185856106d5565b61060e610734565b6001600160a01b03811661063857604051631e4fbdf760e01b815260006004820152602401610463565b61064181610761565b50565b6106518383836001610822565b505050565b6001600160a01b038381166000908152600160209081526040808320938616835292905220546000198110156106cf57818110156106c057604051637dc7a0d960e11b81526001600160a01b03841660048201526024810182905260448101839052606401610463565b6106cf84848484036000610822565b50505050565b6001600160a01b0383166106ff57604051634b637e8f60e11b815260006004820152602401610463565b6001600160a01b0382166107295760405163ec442f0560e01b815260006004820152602401610463565b6106518383836108f7565b6005546001600160a01b031633146104115760405163118cdaa760e01b8152336004820152602401610463565b600580546001600160a01b038381166001600160a01b0319831681179093556040519116919082907f8be0079c531659141344cd1fd0a4f28419497f9722a3daafe3b4186f6b6457e090600090a35050565b60008083836040516107c6929190610c36565b604051908190039020905080158015906107df57508415155b95945050505050565b6001600160a01b0382166108125760405163ec442f0560e01b815260006004820152602401610463565b61081e600083836108f7565b5050565b6001600160a01b03841661084c5760405163e602df0560e01b815260006004820152602401610463565b6001600160a01b03831661087657604051634a1406b160e11b815260006004820152602401610463565b6001600160a01b03808516600090815260016020908152604080832093871683529290522082905580156106cf57826001600160a01b0316846001600160a01b03167f8c5be1e5ebec7d5bd14f71427d1e84f3dd0314c0f7b2291e5b200ac8c7c3b925846040516108e991815260200190565b60405180910390a350505050565b6001600160a01b0383166109225780600260008282546109179190610c15565b909155506109949050565b6001600160a01b038316600090815260208190526040902054818110156109755760405163391434e360e21b81526001600160a01b03851660048201526024810182905260448101839052606401610463565b6001600160a01b03841660009081526020819052604090209082900390555b6001600160a01b0382166109b0576002805482900390556109cf565b6001600160a01b03821660009081526020819052604090208054820190555b816001600160a01b0316836001600160a01b03167fddf252ad1be2c89b69c2b068fc378daa952ba7f163c4a11628f55a4df523b3ef83604051610a1491815260200190565b60405180910390a3505050565b600060208083528351808285015260005b81811015610a4e57858101830151858201604001528201610a32565b506000604082860101526040601f19601f8301168501019250505092915050565b80356001600160a01b0381168114610a8657600080fd5b919050565b60008060408385031215610a9e57600080fd5b610aa783610a6f565b946020939093013593505050565b600080600060608486031215610aca57600080fd5b610ad384610a6f565b9250610ae160208501610a6f565b9150604084013590509250925092565b600060208284031215610b0357600080fd5b610b0c82610a6f565b9392505050565b600080600060408486031215610b2857600080fd5b83359250602084013567ffffffffffffffff80821115610b4757600080fd5b818601915086601f830112610b5b57600080fd5b813581811115610b6a57600080fd5b876020828501011115610b7c57600080fd5b6020830194508093505050509250925092565b60008060408385031215610ba257600080fd5b610bab83610a6f565b9150610bb960208401610a6f565b90509250929050565b600060208284031215610bd457600080fd5b5035919050565b600181811c90821680610bef57607f821691505b602082108103610c0f57634e487b7160e01b600052602260045260246000fd5b50919050565b8082018082111561036f57634e487b7160e01b600052601160045260246000fd5b818382376000910190815291905056fea26469706673582212207514ea64bf2ae835df05cdbd19ff36c32261635919ebfacf0fbd6c0aa026a91d64736f6c63430008140033",
  "linkReferences": {},
  "deployedLinkReferences": {}
}